:020000040800F2
:10000000005000201D160008411500084715000883
:100010004D15000853150008591500080000000090
:100020000000000000000000000000005F15000854
:100030006B15000800000000771500088315000804
:1000400065160008651600086516000865160008A4
:100050006516000865160008651600086516000894
:100060006516000865160008651600086516000884
:100070006516000865160008651600086516000874
:100080006516000865160008651600086516000864
:100090006516000865160008651600086516000854
:1000A0006516000865160008651600086516000844
:1000B0009115000865160008651600086516000809
:1000C0006516000865160008651600086516000824
:1000D0006516000865160008651600086516000814
:1000E0006516000865160008651600080000000087
:1000F0000000000000000000000000000000000000
:0C01000000000000000000005FF808F1A3
:10010C0010B5054C237833B9044B13B10448AFF345
:10011C0000800123237010BDAC0000200000000003
:10012C00103F000808B5034B1BB103490348AFF35C
:10013C00008008BD00000000B0000020103F000847
:10014C0080B400AF064B1B68012B04D1044B00227A
:10015C001A60012300E000231846BD4680BC70479E
:10016C00C800002080B400AF064B1B68012B04D1E3
:10017C00044B00221A60012300E000231846BD4600
:10018C0080BC7047CC00002080B400AF064B1B68CD
:10019C00012B04D1044B00221A60012300E0002340
:1001AC001846BD4680BC7047D000002080B400AF1C
:1001BC00034B01221A6000BFBD4680BC704700BFD4
:1001CC00C800002080B400AF034B01221A6000BFAE
:1001DC00BD4680BC704700BFCC00002080B400AF8F
:1001EC00034B01221A6000BFBD4680BC704700BFA4
:1001FC00D000002080B500AF1F4B1B681F4A136056
:10020C001F4B1B681C4A136008211E4801F03EFD61
:10021C0003461A461A4B1A60184B1A68164B1B6881
:10022C009A4226D1144B1A68154B1B689A4220D15E
:10023C00154B1A68124B1B689A420ED0104B1B6858
:10024C00114A13600E4B1B68002B12D1FFF7AEFF47
:10025C000E4B4FF4FA721A600BE00C4B1B68013B0F
:10026C000A4A1360094B1B68002B02D1064B012272
:10027C001A6000BF80BD00BF0400002000000020F9
:10028C0008000020000C01400C0000203000002071
:10029C0080B500AF1F4B1B681F4A13601F4B1B68B8
:1002AC001C4A136020211E4801F0F0FC03461A463C
:1002BC001A4B1A60184B1A68164B1B689A4226D1B7
:1002CC00144B1A68154B1B689A4220D1154B1A68AF
:1002DC00124B1B689A420ED0104B1B68114A1360CC
:1002EC000E4B1B68002B12D1FFF76CFF0E4B4FF41B
:1002FC00FA721A600BE00C4B1B68013B0A4A136044
:10030C00094B1B68002B02D1064B01221A6000BF5F
:10031C0080BD00BF14000020100000201800002039
:10032C00000C01401C0000203400002080B500AF00
:10033C001F4B1B681F4A13601F4B1B681C4A136022
:10034C0010211E4801F0A2FC03461A461A4B1A60F3
:10035C00184B1A68164B1B689A4226D1144B1A6814
:10036C00154B1B689A4220D1154B1A68124B1B680F
:10037C009A420ED0104B1B68114A13600E4B1B682F
:10038C00002B12D1FFF72AFF0E4B4FF4FA721A60B2
:10039C000BE00C4B1B68013B0A4A1360094B1B68B2
:1003AC00002B02D1064B01221A6000BF80BD00BF9A
:1003BC00240000202000002028000020000C014018
:1003CC002C0000203800002080B5A0B000AFA74B57
:1003DC001B68013B042B00F2818201A252F823F02E
:1003EC0001040008CD040008A3050008CD06000890
:1003FC00A3070008002280219D4801F05EFC00222A
:10040C0040219C4801F059FC00224FF480719A481D
:10041C0001F053FC00224FF40071974801F04DFCA1
:10042C00964B1B68964A82FB03129211DB17D31A68
:10043C00944A1360914B1B68914A82FB03129211F0
:10044C00DB17D31A904A1360904B1B688C4A82FBC3
:10045C0003129211DB17D31A8D4A13608B4B1B6856
:10046C00874A82FB03129211DB17D31A894A136055
:10047C00894B1B68824A82FB03129211DB17D31A39
:10048C00864A1360844B1B687D4A82FB03129211CF
:10049C00DB17D31A824A1360744B02221A60814B09
:1004AC0000221A607C4B1B68184600F093FE4FF438
:1004BC007A7000F0B7FE4FF47A7000F0C7FE14E2C9
:1004CC0001224FF480716C4801F0F7FB01224FF4CC
:1004DC000071694801F0F1FB01228021644801F0B0
:1004EC00ECFB00224021634801F0E7FB6E4B1B68DC
:1004FC00012B0AD15D4B03221A60644B1B68184612
:10050C0000F068FE674B00221A60684B1B68012BD9
:10051C0025D10021012000F0B7FC5A4B1A6807F1D5
:10052C0070036349184603F0B3F807F170031846DB
:10053C0000F08EFC0021022000F0A6FC584B1A683B
:10054C0007F160035B49184603F0A2F807F160035A
:10055C00184600F07DFC4FF47A7000F063FE564BA9
:10056C001B68012B0DD1474B1B68013B454A13609F
:10057C004B4B1B68013B4A4A13604FF47A7000F0F6
:10058C0065FEFFF7DDFD0346012B40F0A981374BDB
:10059C000A221A60A4E101224FF48071364801F05E
:1005AC008CFB01224FF40071334801F086FB0022D2
:1005BC0080212F4801F081FB012240212D4801F0C0
:1005CC007CFB394B1B68012B0AD1284B04221A6087
:1005DC00344B00221A60304B1B68184600F0FAFDB1
:1005EC00324B1B68012B25D10021012000F04CFC63
:1005FC00244B1A6807F150032D49184603F048F8AC
:10060C0007F15003184600F023FC0021022000F0F3
:10061C003BFC204B1A6807F140032849184603F0AD
:10062C0037F807F14003184600F012FC4FF47A70CB
:10063C0000F0F8FD204B1B68012B0DD1114B1B68F2
:10064C00013B104A1360134B1B68013B114A1360AA
:10065C004FF47A7000F0FAFDFFF772FD0346012BA0
:10066C0040F04081014B0A221A603BE1F00000206F
:10067C0000100140000C014000080140FC0000206B
:10068C00D34D621054010020D4000020F80000204B
:10069C004C010020D8000020F40000205001002064
:1006AC00DC000020E00000200401002014010020E8
:1006BC00283F00083C3F00081C010020503F000868
:1006CC0001224FF480718B4801F0F7FA00224FF4AD
:1006DC000071884801F0F1FA01228021864801F06E
:1006EC00ECFA01224021854801F0E7FA844B1B68A3
:1006FC00012B0AD1834B05221A60834B00221A600E
:10070C00824B1B68184600F065FD814B1B68012B62
:10071C0025D10021012000F0B7FB7E4B1A6807F1B0
:10072C0030037D49184602F0B3FF07F13003184639
:10073C0000F08EFB0021022000F0A6FB774B1A681C
:10074C0007F120037649184602F0A2FF07F12003B7
:10075C00184600F07DFB4FF47A7000F063FD714B8E
:10076C001B68012B0DD16B4B1B68013B694A136055
:10077C006A4B1B68013B694A13604FF47A7000F0B6
:10078C0065FDFFF7DDFC0346012B40F0AD805D4BB2
:10079C000A221A60A8E000224FF48071554801F03B
:1007AC008CFA01224FF40071524801F086FA0122B2
:1007BC008021514801F081FA012240214F4801F07B
:1007CC007CFA4F4B1B68012B46D14E4B02221A6010
:1007DC00554B1B68554A82FB03129211DB17D31A37
:1007EC00534A1360504B1B68504A82FB0312921100
:1007FC00DB17D31A494A1360444B1B684B4A82FBE4
:10080C0003129211DB17D31A4A4A13603F4B1B6831
:10081C00464A82FB03129211DB17D31A464A136025
:10082C00464B1B68414A82FB03129211DB17D31A09
:10083C00384A1360414B1B683C4A82FB03129211ED
:10084C00DB17D31A3E4A13603C4B1B68184600F06A
:10085C00C1FC2D4B00221A602D4B1B68012B23D1A0
:10086C000021012000F010FB324B1A6807F1100335
:10087C003449184602F00CFF07F11003184600F03B
:10088C00E7FA0021022000F0FFFA244B1A683B46DD
:10089C002349184602F0FCFE3B46184600F0D8FAF5
:1008AC004FF47A7000F0BEFC1E4B1B68012B0DD16F
:1008BC00204B1B68013B1F4A1360184B1B68013B04
:1008CC00164A13604FF47A7000F0C0FCFFF738FC46
:1008DC000346012B02D10B4B0A221A6000BF04E025
:1008EC0000BF02E000BF00E000BF00BF8037BD4684
:1008FC0080BD00BF0008014000100140000C014009
:10090C0004010020F0000020E0000020F80000208E
:10091C001401002050010020643F0008D400002086
:10092C00783F00081C010020FC000020D34D621011
:10093C00540100204C010020D8000020F4000020BD
:10094C00DC0000208C3F000880B58CB000AF904BD1
:10095C001B680A3B032B00F2C38101A252F823F05F
:10096C007D090008C9090008BB0A0008D10B000862
:10097C0000224FF48071874801F09FF900224FF458
:10098C000071844801F099F900228021824801F01D
:10099C0094F900224021814801F08FF97C4B0B2205
:1009AC001A604FF4FA7000F029FC4FF47A7000F0E2
:1009BC0039FCFA2000F05EFC00F05FFA784B1B6803
:1009CC00012B15D14FF48071724801F08EF94FF460
:1009DC000071704801F089F980216F4801F085F9A8
:1009EC0040216E4801F081F94FF4FA7000F006FCDA
:1009FC006C4B1B68012B1AD10021012000F044FA2A
:100A0C00694800F025FA0021022000F03DFA674BFE
:100A1C001A6807F120036649184602F039FE07F1FF
:100A2C002003184600F014FA642000F023FCFFF7B2
:100A3C0087FB0346012B20D100224FF480715548CF
:100A4C0001F03BF900224FF40071524801F035F9E6
:100A5C0000228021504801F030F9002240214F48FB
:100A6C0001F02BF9514B00221A60524B00221A60F4
:100A7C00474B0C221A6000F000FAFFF773FB034699
:100A8C00012B04D1494B1B680133484A1360FFF713
:100A9C007BFB0346012B40F02581444B1B68464AE7
:100AAC001360424B00221A6000F0E7F91AE13C4B4C
:100ABC001B68012B0CD14FF40071364801F015F96D
:100ACC004021364801F011F94FF4FA7000F096FB12
:100ADC00344B1B68012B1AD10021012000F0D4F9F2
:100AEC00364800F0B5F90021022000F0CDF92F4B6B
:100AFC001A6807F110032E49184602F0C9FD07F1D8
:100B0C001003184600F0A4F9642000F0B3FBFFF7C3
:100B1C0017FB0346012B20D100224FF480711D4896
:100B2C0001F0CBF800224FF400711A4801F0C5F81F
:100B3C0000228021184801F0C0F8002240211748FB
:100B4C0001F0BBF8124B0D221A60184B00221A60F0
:100B5C00184B00221A6000F090F9FFF703FB0346D4
:100B6C00012B04D1114B1B680133104A1360FFF7A2
:100B7C000BFB0346012B40F0B7800C4B1B68104A53
:100B8C0013600A4B00221A6000F077F9ACE000BF4A
:100B9C00F00000200008014000100140000C014052
:100BAC000C01002024010020A03F0008E4000020DC
:100BBC00B03F0008EC00002058010020C03F0008A6
:100BCC00E80000204C4B1B68012B0CD14FF48071BA
:100BDC004A4801F08AF88021494801F086F84FF420
:100BEC00FA7000F00BFB474B1B68012B18D100214E
:100BFC00012000F049F9444800F02AF900210220B4
:100C0C0000F042F9414B1A683B464149184602F044
:100C1C003FFD3B46184600F01BF9642000F02AFB10
:100C2C00FFF78EFA0346012B41D13A4B1A683A4B27
:100C3C001B681A44394B1B689A4217D1374B1B68F7
:100C4C004FF47A7202FB03F3354A1360324B1B6884
:100C5C004FF47A7202FB03F3324A13602D4B1B687C
:100C6C004FF47A7202FB03F32F4A136000224FF405
:100C7C008071224801F021F800224FF400711F48C6
:100C8C0001F01BF8002280211C4801F016F800220C
:100C9C0040211A4801F011F8244B01221A601B4B19
:100CAC0000221A60224B00221A6000F0E6F8FFF7CF
:100CBC0059FA0346012B04D1144B1B680133134A18
:100CCC001360FFF761FA0346012B0FD10F4B1B6822
:100CDC00104A13600D4B00221A6000F0CEF805E0AC
:100CEC0000BF04E000BF02E000BF00E000BF00BF97
:100CFC003037BD4680BD00BF0C010020000801400C
:100D0C000010014024010020D43F0008E400002022
:100D1C00B03F00085C010020E800002058010020D2
:100D2C00FC000020F8000020F4000020F00000205F
:100D3C00EC00002080B586B002AF0346FB71FB7956
:100D4C0023F00F03FB73FB791B01BB73FB7B43F09D
:100D5C000C03DBB23B72FB7B43F00803DBB27B7210
:100D6C00BB7B43F00C03DBB2BB72BB7B43F00803D1
:100D7C00DBB2FB7207F108026423009304234221C7
:100D8C00034801F00FF900BF1037BD4680BD00BF0E
:100D9C006001002080B586B002AF0346FB71FB7981
:100DAC0023F00F03FB73FB791B01BB73FB7B43F03D
:100DBC000D03DBB23B72FB7B43F00903DBB27B72AE
:100DCC00BB7B43F00D03DBB2BB72BB7B43F009036F
:100DDC00DBB2FB7207F10802642300930423422167
:100DEC00034801F0DFF800BF1037BD4680BD00BFDF
:100DFC006001002080B500AF3320FFF79BFF32204D
:100E0C00FFF798FF322000F08BFC2820FFF792FFB1
:100E1C00322000F085FC0120FFF78CFF322000F01F
:100E2C007FFC0620FFF786FF322000F079FC0C20B7
:100E3C00FFF780FF322000F073FC0220FFF77AFFEF
:100E4C00322000F06DFC8020FFF774FF00BF80BDE6
:100E5C0080B582B000AF786006E07B685A1C7A607F
:100E6C001B781846FFF796FF7B681B78002BF4D194
:100E7C0000BF00BF0837BD4680BD80B500AF012064
:100E8C00FFF758FF00BF80BD80B584B000AF78601D
:100E9C0039607B68012B08D17B68DAB23B68DBB226
:100EAC001344DBB27F33FB7308E03B68DBB24033A7
:100EBC00DBB25BB263F07F035BB2FB73FB7B184668
:100ECC00FFF738FF00BF1037BD4680BD80B500AFBF
:100EDC0000F0C4FB00F02AF800F0E4F800F096F8FB
:100EEC0000F066F80C4801F0FFFF0C4B01221A6071
:100EFC000B4B40F6B8321A600A4B4FF4FA621A6088
:100F0C00094B41F288321A60FFF774FFFFF75CFA65
:100F1C00FFF71AFDFAE700BFB4010020F000002033
:100F2C00F4000020F8000020FC00002080B590B0F8
:100F3C0000AF07F1180328220021184602F0A0FB8D
:100F4C003B1D00221A605A609A60DA601A61022313
:100F5C00BB610123BB621023FB6202237B63002372
:100F6C00BB634FF46013FB6307F11803184601F0E1
:100F7C0071FB0346002B01D000F026F90F237B6098
:100F8C000223BB600023FB604FF480633B610023B2
:100F9C007B613B1D0221184601F0DCFD0346002B52
:100FAC0001D000F011F900BF4037BD4680BD0000F4
:100FBC0080B500AF124B134A1A60114B124A5A609B
:100FCC000F4B00229A600E4B0022DA600C4B4FF450
:100FDC0080421A610A4B00225A61094B00229A6125
:100FEC00074B0022DA61064B00221A62044800F01B
:100FFC0095FE0346002B01D000F0E6F800BF80BD43
:10100C006001002000540040A086010080B586B02D
:10101C0000AF07F1080300221A605A609A60DA6088
:10102C003B4600221A605A601D4B4FF080421A60FA
:10103C001B4B41F63F725A60194B00229A60184BB9
:10104C000922DA60164B00221A61154B00229A61B4
:10105C00134801F0F9FE0346002B01D000F0B4F860
:10106C004FF48053BB6007F1080319460C4802F09B
:10107C007DF80346002B01D000F0A6F800233B605E
:10108C0000237B603B461946054802F05FFA034695
:10109C00002B01D000F098F800BF1837BD4680BD7A
:1010AC00B401002080B588B000AF07F11003002216
:1010BC001A605A609A60DA60374B9B69364A43F083
:1010CC0010039361344B9B6903F01003FB60FB68C6
:1010DC00314B9B69304A43F0040393612E4B9B695F
:1010EC0003F00403BB60BB682B4B9B692A4A43F09B
:1010FC0008039361284B9B6903F008037B607B68B2
:10110C0000228021254800F0D8FD00224FF44071C8
:10111C00234800F0D2FD00224021224800F0CDFDF2
:10112C0080233B6101237B610023BB610223FB61B4
:10113C0007F110031946194800F024FC4FF44073D2
:10114C003B6101237B610023BB610223FB6107F13F
:10115C0010031946124800F015FC38233B6100239C
:10116C007B610123BB6107F1100319460D4800F0A8
:10117C0009FC40233B6101237B610023BB610223FB
:10118C00FB6107F110031946064800F0FBFB00BF9A
:10119C002037BD4680BD00BF00100240001001404A
:1011AC0000080140000C014080B582B000AF7860AF
:1011BC0000F074F8FFF71EF8FFF76AF8FFF7B6F8BF
:1011CC0000BF0837BD4680BD80B400AF72B600BF0B
:1011DC00FEE7000080B483B000AF7860054A7B68FE
:1011EC001360054B00221A6000BF0C37BD4680BC53
:1011FC00704700BF000100200401002080B483B0C0
:10120C0000AF7860054A7B681360054B00221A60BA
:10121C0000BF0C37BD4680BC704700BF08010020E2
:10122C000C01002080B483B000AF7860054A7B6865
:10123C001360054B00221A6000BF0C37BD4680BC02
:10124C00704700BF100100201401002080B483B04F
:10125C0000AF7860054A7B681360054B00221A606A
:10126C0000BF0C37BD4680BC704700BF1801002082
:10127C001C01002080B483B000AF7860054A7B6805
:10128C001360054B00221A6000BF0C37BD4680BCB2
:10129C00704700BF200100202401002080B400AF63
:1012AC00414B1B68002B0BDD3F4B1B68013B3E4A3F
:1012BC0013603D4B1B68002B02DC3C4B01221A6077
:1012CC003B4B1B68002B0BDD394B1B68013B384A31
:1012DC001360374B1B68002B02DC364B01221A6063
:1012EC00354B1B68002B0BDD334B1B68013B324A23
:1012FC001360314B1B68002B02DC304B01221A604F
:10130C002F4B1B68002B0BDD2D4B1B68013B2C4A14
:10131C0013602B4B1B68002B02DC2A4B01221A603A
:10132C00294B1B68002B0BDD274B1B68013B264A06
:10133C001360254B1B68002B02DC244B01221A6026
:10134C00234B1B68002B0BDD214B1B68013B204AF8
:10135C0013601F4B1B68002B02DC1E4B01221A6012
:10136C001D4B1B68002B0BDD1B4B1B68013B1A4AEA
:10137C001360194B1B68002B02DC184B01221A60FE
:10138C00174B1B68002B0BDD154B1B68013B144ADC
:10139C001360134B1B68002B02DC124B01221A60EA
:1013AC0000BFBD4680BC7047000100200401002036
:1013BC00080100200C010020100100201401002065
:1013CC00180100201C010020200100202401002015
:1013DC00280100202C0100203001002034010020C5
:1013EC00380100203C01002080B485B000AF154BC3
:1013FC009B69144A43F001039361124B9B6903F000
:10140C000103BB60BB680F4BDB690E4A43F0805392
:10141C00D3610C4BDB6903F080537B607B680A4B18
:10142C005B68FB60FB6823F0E063FB60FB6843F0E8
:10143C008063FB60044AFB68536000BF1437BD46F1
:10144C0080BC7047001002400000014080B58AB09B
:10145C0000AF786007F1140300221A605A609A609A
:10146C00DA607B681B681D4A934232D11C4B9B6926
:10147C001B4A43F008039361194B9B6903F0080363
:10148C003B613B694FF440737B611223BB610323C7
:10149C003B6207F114031946124800F073FA124B21
:1014AC005B687B627B6A43F0E0637B627B6A43F040
:1014BC0002037B620C4A7B6A5360094BDB69084A66
:1014CC0043F40013D361064BDB6903F40013FB6098
:1014DC00FB6800BF2837BD4680BD00BF00540040EC
:1014EC0000100240000C01400000014080B584B0A7
:1014FC0000AF78607B681B68B3F1804F13D10C4B45
:10150C00DB690B4A43F00103D361094BDB6903F040
:10151C000103FB60FB68002200211C2000F0FBF99A
:10152C001C2000F014FA00BF1037BD4680BD00BF70
:10153C000010024080B400AFFEE780B400AFFEE7BD
:10154C0080B400AFFEE780B400AFFEE780B400AF1C
:10155C00FEE780B400AF00BFBD4680BC704780B4CE
:10156C0000AF00BFBD4680BC704780B400AF00BF69
:10157C00BD4680BC704780B500AF00F0B5F800BF29
:10158C0080BD000080B500AF024801F0FFFC00BF39
:10159C0080BD00BFB401002080B586B000AF78607C
:1015AC00144A154BD31A7B617B693B61134B1B6847
:1015BC00002B02D1114B124A1A60104B1A687B682F
:1015CC0013443A699A4207D202F030F803460C22CF
:1015DC001A604FF0FF3309E0084B1B68FB60074BA8
:1015EC001A687B681344054A1360FB681846183761
:1015FC00BD4680BD005000200004000040010020CA
:10160C001002002080B400AF00BFBD4680BC704704
:10161C00FFF7F8FF0B480C490C4A002302E0D458A2
:10162C00C4500433C4188C42F9D3094A094C002322
:10163C0001E013600432A242FBD301F0FDFFFFF77F
:10164C0045FC704700000020AC0000204C40000816
:10165C00AC00002010020020FEE7000080B500AFB7
:10166C00084B1B68074A43F010031360032000F07B
:10167C0047F9002000F008F8FFF7B6FE00231846E3
:10168C0080BD00BF0020024080B582B000AF786002
:10169C00124B1A68124B1B7819464FF47A73B3FB32
:1016AC00F1F3B2FBF3F3184600F05FF90346002B9D
:1016BC0001D001230EE07B680F2B0AD80022796839
:1016CC004FF0FF3000F027F9064A7B6813600023C7
:1016DC0000E0012318460837BD4680BD3C000020C1
:1016EC00440000204000002080B400AF054B1B7864
:1016FC001A46054B1B681344034A136000BFBD46D2
:10170C0080BC704744000020FC01002080B400AF76
:10171C00024B1B681846BD4680BC7047FC0100207C
:10172C0080B584B000AF7860FFF7F0FFB8607B68DD
:10173C00FB60FB68B3F1FF3F05D00A4B1B781A46E0
:10174C00FB681344FB6000BFFFF7E0FF0246BB6879
:10175C00D31AFA689A42F7D800BF00BF1037BD46BB
:10176C0080BD00BF4400002080B485B000AF78601D
:10177C007B6803F00703FB600C4BDB68BB60BA684B
:10178C004FF6FF031340BB60FB681A02BB681343A0
:10179C0043F0BF6343F40033BB60044ABB68D360BF
:1017AC0000BF1437BD4680BC704700BF00ED00E0A1
:1017BC0080B400AF044BDB681B0A03F00703184628
:1017CC00BD4680BC704700BF00ED00E080B483B024
:1017DC0000AF0346FB7197F90730002B0BDBFB794D
:1017EC0003F01F02064997F907305B09012000FA44
:1017FC0002F241F8232000BF0C37BD4680BC704775
:10180C0000E100E080B483B000AF03463960FB71A7
:10181C0097F90730002B0ADB3B68DAB20C4997F9D1
:10182C0007301201D2B20B4483F800230AE03B6864
:10183C00DAB20849FB7903F00F03043B1201D2B270
:10184C000B441A7600BF0C37BD4680BC704700BFF6
:10185C0000E100E000ED00E080B489B000AFF8607A
:10186C00B9607A60FB6803F00703FB61FB69C3F1A5
:10187C000703042B28BF0423BB61FB690433062B2D
:10188C0002D9FB69033B00E000237B614FF0FF3280
:10189C00BB6902FA03F3DA43BB681A407B699A40CE
:1018AC004FF0FF317B6901FA03F3D9437B680B409E
:1018BC00134318462437BD4680BC704780B582B0B0
:1018CC0000AF78607B68013BB3F1807F01D30123CB
:1018DC000FE00A4A7B68013B53600F214FF0FF3049
:1018EC00FFF790FF054B00229A60044B07221A6009
:1018FC00002318460837BD4680BD00BF10E000E04D
:10190C0080B582B000AF78607868FFF72DFF00BF1C
:10191C000837BD4680BD80B586B000AF0346B960C0
:10192C007A60FB7300237B61FFF742FF78617A6872
:10193C00B9687869FFF790FF024697F90F301146A6
:10194C001846FFF75FFF00BF1837BD4680BD80B556
:10195C0082B000AF0346FB7197F907301846FFF7CA
:10196C0035FF00BF0837BD4680BD80B582B000AFE3
:10197C0078607868FFF7A2FF034618460837BD4623
:10198C0080BD000080B48BB000AF7860396000235C
:10199C007B6200233B6269E101227B6A02FA03F35A
:1019AC00FB613B681B68FA691340BB61BA69FB6950
:1019BC009A4240F058813B685B689A4A93425ED0E9
:1019CC00984A934275D8984A934258D0964A934273
:1019DC006FD8964A934252D0944A934269D8944A0B
:1019EC0093424CD0924A934263D8924A934246D047
:1019FC00904A93425DD8122B2AD8122B59D801A2A7
:101A0C0052F823F08B1A0008651A0008771A0008A0
:101A1C00B91A0008BF1A0008BF1A0008BF1A00083C
:101A2C00BF1A0008BF1A0008BF1A0008BF1A000826
:101A3C00BF1A0008BF1A0008BF1A0008BF1A000816
:101A4C00BF1A0008BF1A00086D1A0008811A000896
:101A5C00794A934213D02CE03B68DB683B6229E067
:101A6C003B68DB6804333B6224E03B68DB6808338B
:101A7C003B621FE03B68DB680C333B621AE03B685F
:101A8C009B68002B02D104233B6213E03B689B68EC
:101A9C00012B05D108233B627B68FA691A6109E0C6
:101AAC0008233B627B68FA695A6103E000233B62BE
:101ABC0000E000BFBB69FF2B01D87B6801E07B68AD
:101ACC0004337B61BB69FF2B02D87B6A9B0002E06D
:101ADC007B6A083B9B003B617B691A680F213B6961
:101AEC0001FA03F3DB431A40396A3B6901FA03F349
:101AFC001A437B691A603B685B6803F08053002BC8
:101B0C0000F0B1804D4B9B694C4A43F0010393614B
:101B1C004A4B9B6903F00103BB60BB68484A7B6A74
:101B2C009B08023352F82330FB607B6A03F00303FB
:101B3C009B000F2202FA03F3DB43FA681340FB60AD
:101B4C007B68404A934213D07B683F4A93420DD046
:101B5C007B683E4A934207D07B683D4A934201D151
:101B6C00032306E0042304E0022302E0012300E047
:101B7C0000237A6A02F0030292009340FA6813433E
:101B8C00FB602F497B6A9B080233FA6841F82320DB
:101B9C003B685B6803F48013002B06D02D4B9A68CE
:101BAC002C49BB6913438B6006E02A4B9A68BB69CE
:101BBC00DB43284913408B603B685B6803F40013DC
:101BCC00002B06D0234BDA682249BB691343CB6048
:101BDC0006E0204BDA68BB69DB431E491340CB603F
:101BEC003B685B6803F40033002B06D0194B5A6832
:101BFC001849BB6913434B6006E0164B5A68BB6926
:101C0C00DB43144913404B603B685B6803F480333F
:101C1C00002B21D00F4B1A680E49BB6913430B6084
:101C2C0021E000BF00003210000031100000221033
:101C3C0000002110000012100000111000100240D2
:101C4C000000014000080140000C01400010014060
:101C5C0000140140000401400B4B1A68BB69DB43C4
:101C6C00094913400B607B6A01337B623B681A683D
:101C7C007B6A22FA03F3002B7FF48EAE00BF00BF09
:101C8C002C37BD4680BC70470004014080B485B041
:101C9C0000AF78600B467B807B689A687B8813402A
:101CAC00002B02D00123FB7301E00023FB73FB7BB1
:101CBC0018461437BD4680BC704780B483B000AF63
:101CCC0078600B467B8013467B707B78002B03D0AF
:101CDC007A887B681A6103E07B881A047B681A6136
:101CEC0000BF0C37BD4680BC704780B485B000AFD8
:101CFC0078600B467B807B68DB68FB607A88FB68CE
:101D0C0013401A04FB68D9437B880B401A437B6849
:101D1C001A6100BF1437BD4680BC704780B584B0D3
:101D2C0000AF78607B68002B01D101232BE17B682D
:101D3C0093F83D30DBB2002B06D17B68002283F890
:101D4C003C207868FFF782FB7B68242283F83D20D7
:101D5C007B681B681A687B681B6822F001021A609A
:101D6C007B681B681A687B681B6842F400421A6027
:101D7C007B681B681A687B681B6822F400421A6037
:101D8C0001F030F8F8607B685B68814A934207D8B1
:101D9C00FB68804A934294BF01230023DBB206E028
:101DAC00FB687D4A934294BF01230023DBB2002BD6
:101DBC0001D00123E7E0FB68784AA2FB03239B0CCC
:101DCC00BB607B681B685B6823F03F017B681B680A
:101DDC00BA680A435A607B681B681B6A23F03F0190
:101DEC007B685B686A4A934202D8BB68013309E09E
:101DFC00BB684FF4967202FB03F3694AA2FB032300
:101E0C009B0901337A6812680B4313627B681B6869
:101E1C00DB6923F44F4222F0FF027B685B685C496C
:101E2C008B4219D8FB68591E7B685B685B00B1FB61
:101E3C00F3F3591C40F6FC730B40002B0AD0FB68E3
:101E4C00591E7B685B685B00B1FBF3F30133C3F392
:101E5C000B0351E004234FE07B689B68002B11D1EE
:101E6C00FB68581E7B6859680B465B000B44B0FB43
:101E7C00F3F30133C3F30B03002B0CBF012300233B
:101E8C00DBB212E0FB68581E7B6859680B469B005E
:101E9C000B4499000B44B0FBF3F30133C3F30B0376
:101EAC00002B0CBF01230023DBB2002B01D001233C
:101EBC0022E07B689B68002B0ED1FB68581E7B6868
:101ECC0059680B465B000B44B0FBF3F30133C3F3CF
:101EDC000B0343F400430FE0FB68581E7B68596802
:101EEC000B469B000B4499000B44B0FBF3F30133FE
:101EFC00C3F30B0343F44043796809681343CB6184
:101F0C007B681B681B6823F0C0017B68DA697B68FF
:101F1C001B6A1A437B681B680A431A607B681B6840
:101F2C009B6823F4034323F0FF037A6811697A68F2
:101F3C00D26811437A6812680B4393607B681B6804
:101F4C00DB6823F0FF017B685A697B689B691A4345
:101F5C007B681B680A43DA607B681B681A687B68BD
:101F6C001B6842F001021A607B6800221A647B68CD
:101F7C00202283F83D207B6800221A637B680022B4
:101F8C0083F83E20002318461037BD4680BD00BFA5
:101F9C00A08601007F841E00FF083D0083DE1B43EA
:101FAC00D34D621080B588B002AFF8607A601A46E3
:101FBC000B467B8113463B81FFF7A8FB7861FB68DE
:101FCC0093F83D30DBB2202B40F0E0807B6900932E
:101FDC00192301227049F86800F064F90346002BBC
:101FEC0001D00223D3E0FB6893F83C30012B01D1E4
:101FFC000223CCE0FB68012283F83C20FB681B68C1
:10200C001B6803F00103012B07D0FB681B681A68DF
:10201C00FB681B6842F001021A60FB681B681A68B7
:10202C00FB681B6822F400621A60FB68212283F8AB
:10203C003D20FB68102283F83E20FB6800221A64C6
:10204C00FB687A685A62FB683A895A85FB685B8D33
:10205C009AB2FB681A85FB68504ADA6279897B6907
:10206C003A6AF86800F09CF80346002B01D0012373
:10207C008DE000233B61FB681B685B693B61FB687F
:10208C001B689B693B613B6966E07A69396AF86851
:10209C0000F022FA0346002B0DD0FB681B6C042BBE
:1020AC0007D1FB681B681A68FB681B6842F4007256
:1020BC001A6001236BE0FB685B6A1A78FB681B688B
:1020CC001A61FB685B6A5A1CFB685A62FB685B8D81
:1020DC009BB2013B9AB2FB685A85FB681B8D013B96
:1020EC009AB2FB681A85FB681B685B6903F00403F2
:1020FC00042B1BD1FB681B8D002B17D0FB685B6A74
:10210C001A78FB681B681A61FB685B6A5A1CFB68CF
:10211C005A62FB685B8D9BB2013B9AB2FB685A8595
:10212C00FB681B8D013B9AB2FB681A857A69396A88
:10213C00F86800F019FA0346002B0DD0FB681B6CF5
:10214C00042B07D1FB681B681A68FB681B6842F4F8
:10215C0000721A6001231AE0FB681B8D002B94D1CE
:10216C00FB681B681A68FB681B6842F400721A60F3
:10217C00FB68202283F83D20FB68002283F83E2078
:10218C00FB68002283F83C20002300E00223184661
:10219C001837BD4680BD00BF020010000000FFFFD5
:1021AC0080B588B002AFF8607A603B600B467B81EB
:1021BC00FB68DB6A7B617B69082B06D07B69012B92
:1021CC0003D07B6913F5803F08D1FB681B681A6844
:1021DC00FB681B6842F480721A600BE0FB681B6B97
:1021EC00122B07D1FB681B681A68FB681B6842F44A
:1021FC0080721A603B6800937B6800224FF00111DB
:10220C00F86800F04FF80346002B0DD0FB681B68F4
:10221C001B6803F48073B3F5807F03D1FB684FF424
:10222C0000721A64032335E0FB681B69B3F5804F19
:10223C0008D17B89DBB21A46FB681B6802F0FE02F0
:10224C001A611BE07B89DB11DBB203F00603DBB206
:10225C0063F00F03DAB2FB681B681A613B687A689B
:10226C000E49F86800F098F80346002B01D00123C2
:10227C0010E07B89DAB2FB681B681A613B687A68EC
:10228C000749F86800F088F80346002B01D00123B9
:10229C0000E0002318461837BD4680BD0800010039
:1022AC000200010080B584B000AFF860B9603B60FB
:1022BC001346FB7148E03B68B3F1FF3F44D0FFF796
:1022CC0025FA0246BB69D31A3A689A4202D33B6894
:1022DC00002B39D1BB681B0CDBB2012B0DD1FB6879
:1022EC001B685B69DA43BB6813409BB2002B0CBFC5
:1022FC0001230023DBB21A460CE0FB681B689B69C8
:10230C00DA43BB6813409BB2002B0CBF01230023A4
:10231C00DBB21A46FB799A4216D1FB6800221A638B
:10232C00FB68202283F83D20FB68002283F83E20C6
:10233C00FB681B6C43F02002FB681A64FB680022EC
:10234C0083F83C20012323E0BB681B0CDBB2012B80
:10235C000DD1FB681B685B69DA43BB6813409BB209
:10236C00002B0CBF01230023DBB21A460CE0FB68E8
:10237C001B689B69DA43BB6813409BB2002B0CBFF4
:10238C0001230023DBB21A46FB799A4293D0002337
:10239C0018461037BD4680BD80B584B000AFF860DC
:1023AC00B9607A603B6071E0FB681B685B6903F4A1
:1023BC008063B3F5806F23D1FB681B681A68FB68D8
:1023CC001B6842F400721A60FB681B686FF4806231
:1023DC005A61FB6800221A63FB68202283F83D20B7
:1023EC00FB68002283F83E20FB681B6C43F0040260
:1023FC00FB681A64FB68002283F83C20012367E029
:10240C007B68B3F1FF3F41D0FFF780F902463B6890
:10241C00D31A7A689A4202D37B68002B36D1BB68F8
:10242C001B0CDBB2012B0CD1FB681B685B69DA431C
:10243C00BB6813409BB2002B14BF01230023DBB2FB
:10244C000BE0FB681B689B69DA43BB6813409BB2CB
:10245C00002B14BF01230023DBB2002B16D0FB682A
:10246C0000221A63FB68202283F83D20FB680022BF
:10247C0083F83E20FB681B6C43F02002FB681A6457
:10248C00FB68002283F83C20012321E0BB681B0C75
:10249C00DBB2012B0CD1FB681B685B69DA43BB68B0
:1024AC0013409BB2002B14BF01230023DBB20BE0C3
:1024BC00FB681B689B69DA43BB6813409BB2002B1B
:1024CC0014BF01230023DBB2002B7FF46DAF00237C
:1024DC0018461037BD4680BD80B584B000AFF8609B
:1024EC00B9607A6034E0F86800F086F80346002B97
:1024FC0001D0012334E0BB68B3F1FF3F28D0FFF7D4
:10250C0005F902467B68D31ABA689A4202D3BB68B3
:10251C00002B1DD1FB681B685B6903F08003802BCB
:10252C0016D0FB6800221A63FB68202283F83D203A
:10253C00FB68002283F83E20FB681B6C43F02002F2
:10254C00FB681A64FB68002283F83C20012307E037
:10255C00FB681B685B6903F08003802BC3D10023ED
:10256C0018461037BD4680BD80B584B000AFF8600A
:10257C00B9607A6034E0F86800F03EF80346002B4E
:10258C0001D0012334E0BB68B3F1FF3F28D0FFF743
:10259C00BDF802467B68D31ABA689A4202D3BB686C
:1025AC00002B1DD1FB681B685B6903F00403042B33
:1025BC0016D0FB6800221A63FB68202283F83D20AA
:1025CC00FB68002283F83E20FB681B6C43F0200262
:1025DC00FB681A64FB68002283F83C20012307E0A7
:1025EC00FB681B685B6903F00403042BC3D1002355
:1025FC0018461037BD4680BD80B483B000AF7860FC
:10260C007B681B685B6903F48063B3F5806F1BD137
:10261C007B681B686FF480625A617B6800221A63C6
:10262C007B68202283F83D207B68002283F83E20C3
:10263C007B681B6C43F004027B681A647B68002285
:10264C0083F83C20012300E0002318460C37BD46DC
:10265C0080BC704780B586B000AF78607B68002B7B
:10266C0001D101236CE27B681B6803F00103002B92
:10267C0000F08780924B5B6803F00C03042B0CD0AA
:10268C008F4B5B6803F00C03082B12D18C4B5B68EF
:10269C0003F48033B3F5803F0BD1894B1B6803F4F3
:1026AC000033002B6CD07B685B68002B68D1012356
:1026BC0046E27B685B68B3F5803F06D1804B1B68B4
:1026CC007F4A43F4803313602EE07B685B68002BF9
:1026DC000CD17B4B1B687A4A23F480331360784B04
:1026EC001B68774A23F4802313601DE07B685B68CA
:1026FC00B3F5A02F0CD1724B1B68714A43F48023A5
:10270C0013606F4B1B686E4A43F4803313600BE00D
:10271C006B4B1B686A4A23F480331360684B1B684D
:10272C00674A23F4802313607B685B68002B13D00B
:10273C00FEF7ECFF386108E0FEF7E8FF02463B6964
:10274C00D31A642B01D90323FAE15D4B1B6803F404
:10275C000033002BF0D014E0FEF7D8FF386108E00E
:10276C00FEF7D4FF02463B69D31A642B01D903232D
:10277C00E6E1534B1B6803F40033002BF0D100E06F
:10278C0000BF7B681B6803F00203002B63D04C4B2B
:10279C005B6803F00C03002B0BD0494B5B6803F018
:1027AC000C03082B1CD1464B5B6803F48033002BC5
:1027BC0016D1434B1B6803F00203002B05D07B683A
:1027CC001B69012B01D00123BAE13D4B1B6823F09F
:1027DC00F8027B685B69DB00394913430B603AE014
:1027EC007B681B69002B20D0364B01221A60FEF748
:1027FC008DFF386108E0FEF789FF02463B69D31A6A
:10280C00022B01D903239BE12D4B1B6803F0020320
:10281C00002BF0D02A4B1B6823F0F8027B685B6915
:10282C00DB00274913430B6015E0264B00221A608E
:10283C00FEF76CFF386108E0FEF768FF02463B6963
:10284C00D31A022B01D903237AE11D4B1B6803F029
:10285C000203002BF0D17B681B6803F00803002BEC
:10286C003AD07B689B69002B19D0174B01221A6058
:10287C00FEF74CFF386108E0FEF748FF02463B6963
:10288C00D31A022B01D903235AE10D4B5B6A03F0D7
:10289C000203002BF0D0012000F0B8FA1CE00A4B28
:1028AC0000221A60FEF732FF38610FE0FEF72EFFB0
:1028BC0002463B69D31A022B08D9032340E100BF1F
:1028CC000010024000004242800442429E4B5B6A70
:1028DC0003F00203002BE9D17B681B6803F00403AF
:1028EC00002B00F0A6800023FB75974BDB6903F0EF
:1028FC008053002B0DD1944BDB69934A43F08053EA
:10290C00D361914BDB6903F08053BB60BB6801233F
:10291C00FB758E4B1B6803F48073002B18D18B4B0B
:10292C001B688A4A43F480731360FEF7EFFE38612C
:10293C0008E0FEF7EBFE02463B69D31A642B01D983
:10294C000323FDE0814B1B6803F48073002BF0D054
:10295C007B68DB68012B06D17B4B1B6A7A4A43F000
:10296C00010313622DE07B68DB68002B0CD1764BE6
:10297C001B6A754A23F001031362734B1B6A724A7C
:10298C0023F0040313621CE07B68DB68052B0CD17D
:10299C006D4B1B6A6C4A43F0040313626A4B1B6A4F
:1029AC00694A43F0010313620BE0674B1B6A664AEA
:1029BC0023F001031362644B1B6A634A23F0040384
:1029CC0013627B68DB68002B15D0FEF79FFE386125
:1029DC000AE0FEF79BFE02463B69D31A41F28832AD
:1029EC00934201D90323ABE0574B1B6A03F002035C
:1029FC00002BEED014E0FEF789FE38610AE0FEF7FA
:102A0C0085FE02463B69D31A41F28832934201D9C2
:102A1C00032395E04C4B1B6A03F00203002BEED111
:102A2C00FB7D012B05D1484BDB69474A23F08053D2
:102A3C00D3617B68DB69002B00F08180424B5B68C3
:102A4C0003F00C03082B61D07B68DB69022B46D1A9
:102A5C003F4B00221A60FEF759FE386108E0FEF782
:102A6C0055FE02463B69D31A022B01D9032367E0BA
:102A7C00354B1B6803F00073002BF0D17B681B6A8D
:102A8C00B3F5803F08D1304B5B6823F400327B6890
:102A9C009B682D4913434B602B4B5B6823F47412DA
:102AAC007B68196A7B685B6A0B43274913434B604D
:102ABC00274B01221A60FEF729FE386108E0FEF769
:102ACC0025FE02463B69D31A022B01D9032337E0BA
:102ADC001D4B1B6803F00073002BF0D02FE01C4B38
:102AEC0000221A60FEF712FE386108E0FEF70EFEB7
:102AFC0002463B69D31A022B01D9032320E0124B67
:102B0C001B6803F00073002BF0D118E07B68DB69C5
:102B1C00012B01D1012313E00B4B5B68FB60FB68BD
:102B2C0003F480327B681B6A9A4206D1FB6803F47B
:102B3C0070127B685B6A9A4201D0012300E000238B
:102B4C0018461837BD4680BD00100240007000408A
:102B5C006000424280B584B000AF786039607B6819
:102B6C00002B01D10123D0E06A4B1B6803F0070353
:102B7C003A689A4210D9674B1B6823F007026549E3
:102B8C003B6813430B60634B1B6803F007033A6805
:102B9C009A4201D00123B8E07B681B6803F0020362
:102BAC00002B20D07B681B6803F00403002B05D09E
:102BBC00594B5B68584A43F4E06353607B681B686D
:102BCC0003F00803002B05D0534B5B68524A43F4C7
:102BDC0060535360504B5B6823F0F0027B689B683A
:102BEC004D4913434B607B681B6803F00103002BBA
:102BFC0040D07B685B68012B07D1474B1B6803F403
:102C0C000033002B15D101237FE07B685B68022B1E
:102C1C0007D1414B1B6803F00073002B09D1012332
:102C2C0073E03D4B1B6803F00203002B01D1012321
:102C3C006BE0394B5B6823F003027B685B683649B9
:102C4C0013434B60FEF762FDF8600AE0FEF75EFD91
:102C5C000246FB68D31A41F28832934201D903230E
:102C6C0053E02D4B5B6803F00C027B685B689B00A8
:102C7C009A42EBD1274B1B6803F007033A689A4240
:102C8C0010D2244B1B6823F0070222493B681343E4
:102C9C000B60204B1B6803F007033A689A4201D083
:102CAC00012332E07B681B6803F00403002B08D07F
:102CBC00194B5B6823F4E0627B68DB6816491343AD
:102CCC004B607B681B6803F00803002B09D0124B88
:102CDC005B6823F460527B681B69DB000E4913436D
:102CEC004B6000F021F802460B4B5B681B0903F0AC
:102CFC000F030A49CB5C22FA03F3094A1360094B10
:102D0C001B681846FEF7C0FC002318461037BD465A
:102D1C0080BD00BF0020024000100240E43F0008CC
:102D2C003C0000204000002080B487B000AF00239E
:102D3C00FB600023BB6000237B6100237B600023CE
:102D4C003B611E4B5B68FB60FB6803F00C03042BC0
:102D5C0002D0082B03D027E0194B3B6127E0FB681E
:102D6C009B0C03F00F03174AD35C7B60FB6803F4E6
:102D7C008033002B10D0114B5B685B0C03F001030C
:102D8C00114AD35CBB607B680D4A02FB03F2BB6843
:102D9C00B2FBF3F37B6104E07B680C4A02FB03F3A8
:102DAC007B617B693B6102E0054B3B6100BF3B698A
:102DBC0018461C37BD4680BC704700BF001002404F
:102DCC0000127A00FC3F00080C40000800093D008E
:102DDC0080B400AF024B1B681846BD4680BC7047E0
:102DEC003C00002080B500AFFFF7F2FF0246054B18
:102DFC005B681B0A03F007030349CB5C22FA03F35D
:102E0C00184680BD00100240F43F000880B485B025
:102E1C0000AF78600A4B1B680A4AA2FB03235B0ACB
:102E2C007A6802FB03F3FB6000BFFB685A1EFA6072
:102E3C00002BF9D100BF00BF1437BD4680BC7047D2
:102E4C003C000020D34D621080B582B000AF78609A
:102E5C007B68002B01D1012341E07B6893F83D3066
:102E6C00DBB2002B06D17B68002283F83C2078680B
:102E7C00FEF73CFB7B68022283F83D207B681A68D6
:102E8C007B6804331946104600F05CFA7B6801221B
:102E9C0083F846207B68012283F83E207B68012260
:102EAC0083F83F207B68012283F840207B68012255
:102EBC0083F841207B68012283F842207B68012241
:102ECC0083F843207B68012283F844207B6801222D
:102EDC0083F845207B68012283F83D2000231846A7
:102EEC000837BD4680BD000080B485B000AF786067
:102EFC007B6893F83D30DBB2012B01D001233AE023
:102F0C007B68022283F83D207B681B68DA687B684B
:102F1C001B6842F00102DA607B681B68184A934216
:102F2C000ED07B681B68B3F1804F09D07B681B689F
:102F3C00144A934204D07B681B68134A934211D104
:102F4C007B681B689B6803F00703FB60FB68062B20
:102F5C0010D07B681B681A687B681B6842F0010202
:102F6C001A6007E07B681B681A687B681B6842F074
:102F7C0001021A60002318461437BD4680BC704706
:102F8C00002C0140000400400008004080B584B0D3
:102F9C0000AF78607B681B68DB68FB607B681B6834
:102FAC001B69BB60BB6803F00203002B20D0FB68DD
:102FBC0003F00203002B1BD07B681B686FF002022E
:102FCC001A617B6801221A777B681B689B6903F086
:102FDC000303002B03D0786800F098F905E07868BB
:102FEC0000F08BF9786800F09AF97B6800221A7768
:102FFC00BB6803F00403002B20D0FB6803F0040330
:10300C00002B1BD07B681B686FF004021A617B6875
:10301C0002221A777B681B689B6903F44073002BB0
:10302C0003D0786800F072F905E0786800F065F973
:10303C00786800F074F97B6800221A77BB6803F09B
:10304C000803002B20D0FB6803F00803002B1BD0D7
:10305C007B681B686FF008021A617B6804221A7780
:10306C007B681B68DB6903F00303002B03D07868D3
:10307C0000F04CF905E0786800F03FF9786800F052
:10308C004EF97B6800221A77BB6803F01003002B03
:10309C0020D0FB6803F01003002B1BD07B681B684F
:1030AC006FF010021A617B6808221A777B681B6824
:1030BC00DB6903F44073002B03D0786800F026F929
:1030CC0005E0786800F019F9786800F028F97B6859
:1030DC0000221A77BB6803F00103002B0CD0FB68AD
:1030EC0003F00103002B07D07B681B686FF0010213
:1030FC001A617868FEF758F8BB6803F08003002B60
:10310C000CD0FB6803F08003002B07D07B681B6896
:10311C006FF080021A61786800F07FFABB6803F0E8
:10312C004003002B0CD0FB6803F04003002B07D0AE
:10313C007B681B686FF040021A61786800F0F8F841
:10314C00BB6803F02003002B0CD0FB6803F02003BA
:10315C00002B07D07B681B686FF020021A6178681F
:10316C0000F052FA00BF1037BD4680BD80B584B068
:10317C0000AF786039600023FB737B6893F83C30B8
:10318C00012B01D10223B4E07B68012283F83C209F
:10319C007B68022283F83D207B681B689B68BB60C0
:1031AC00BB6823F07703BB60BB6823F47F43BB6031
:1031BC007B681B68BA689A603B681B68B3F5005F54
:1031CC003ED0B3F5005F00F28780B3F5805F00F06E
:1031DC008680B3F5805F7FD8702B1AD0702B7BD88C
:1031EC00602B50D0602B77D8502B3CD0502B73D801
:1031FC00402B58D0402B6FD8302B64D0302B6BD851
:10320C00202B60D0202B67D8002B5CD0102B5AD0F1
:10321C0062E07B6818683B6899683B685A683B6851
:10322C00DB6800F074F97B681B689B68BB60BB684B
:10323C0043F07703BB607B681B68BA689A604FE009
:10324C007B6818683B6899683B685A683B68DB6820
:10325C0000F05DF97B681B689A687B681B6842F418
:10326C0080429A603CE07B6818683B6859683B6810
:10327C00DB681A4600F0D4F87B681B6850211846AE
:10328C0000F02BF92CE07B6818683B6859683B68A8
:10329C00DB681A4600F0F2F87B681B686021184660
:1032AC0000F01BF91CE07B6818683B6859683B68A8
:1032BC00DB681A4600F0B4F87B681B68402118469E
:1032CC0000F00BF90CE07B681A683B681B68194628
:1032DC00104600F002F903E00123FB7300E000BF8D
:1032EC007B68012283F83D207B68002283F83C2018
:1032FC00FB7B18461037BD4680BD80B483B000AF51
:10330C00786000BF0C37BD4680BC704780B483B07A
:10331C0000AF786000BF0C37BD4680BC704780B4EE
:10332C0083B000AF786000BF0C37BD4680BC7047DF
:10333C0080B483B000AF786000BF0C37BD4680BC52
:10334C007047000080B485B000AF786039607B684E
:10335C001B68FB607B682F4A93420BD07B68B3F1F0
:10336C00804F07D07B682C4A934203D07B682B4A52
:10337C00934208D1FB6823F07003FB603B685B68E9
:10338C00FA681343FB607B68224A93420BD07B683C
:10339C00B3F1804F07D07B681F4A934203D07B6800
:1033AC001E4A934208D1FB6823F44073FB603B68D0
:1033BC00DB68FA681343FB60FB6823F080023B6810
:1033CC005B691343FB607B68FA681A603B689A6818
:1033DC007B68DA623B681A687B689A627B680D4A84
:1033EC00934203D13B681A697B681A637B6801229C
:1033FC005A617B681B6903F00103002B05D07B68C5
:10340C001B6923F001027B681A6100BF1437BD46AB
:10341C0080BC7047002C01400004004000080040B4
:10342C0080B487B000AFF860B9607A60FB681B6A43
:10343C007B61FB681B6A23F00102FB681A62FB6864
:10344C009B693B613B6923F0F0033B617B681B018B
:10345C003A6913433B617B6923F00A037B617A6908
:10346C00BB6813437B61FB683A699A61FB687A69B4
:10347C001A6200BF1C37BD4680BC704780B487B051
:10348C0000AFF860B9607A60FB681B6A7B61FB680F
:10349C001B6A23F01002FB681A62FB689B693B6194
:1034AC003B6923F470433B617B681B033A6913430C
:1034BC003B617B6923F0A0037B61BB681B017A69CC
:1034CC0013437B61FB683A699A61FB687A691A62FB
:1034DC0000BF1C37BD4680BC704780B485B000AFC0
:1034EC00786039607B689B68FB60FB6823F0700335
:1034FC00FB603A68FB68134343F00703FB607B688F
:10350C00FA689A6000BF1437BD4680BC704780B41F
:10351C0087B000AFF860B9607A603B60FB689B686D
:10352C007B617B6923F47F437B613B681A027B6878
:10353C001A43BB6813437A6913437B61FB687A694E
:10354C009A6000BF1C37BD4680BC704780B485B004
:10355C0000AF786039607B6893F83C30012B01D167
:10356C00022346E07B68012283F83C207B68022220
:10357C0083F83D207B681B685B68FB607B681B687D
:10358C009B68BB60FB6823F07003FB603B681B68A7
:10359C00FA681343FB607B681B68FA685A607B68A7
:1035AC001B68164A93420ED07B681B68B3F1804FA0
:1035BC0009D07B681B68124A934204D07B681B6855
:1035CC00104A93420CD1BB6823F08003BB603B686C
:1035DC005B68BA681343BB607B681B68BA689A6007
:1035EC007B68012283F83D207B68002283F83C2015
:1035FC00002318461437BD4680BC7047002C014090
:10360C00000400400008004080B483B000AF786034
:10361C0000BF0C37BD4680BC704780B483B000AF90
:10362C00786000BF0C37BD4680BC7047014B1868F2
:10363C00704700BF4800002070B500260C4D0D4CA3
:10364C00641BA410A64209D100F05CFC00260A4DB4
:10365C000A4C641BA410A64205D170BD55F8043B5E
:10366C0098470136EEE755F8043B98470136F2E7E8
:10367C00444000084440000844400008484000080A
:10368C0003460244934200D1704703F8011BF9E74B
:10369C000EB46FF0004100B59CB01DAB02900690CB
:1036AC00079104910848094953F8042B05910068C7
:1036BC0002A9019300F068F80022029B1A701CB05A
:1036CC005DF804EB03B07047480000200802FFFFD0
:1036DC002DE9F0478E6882469E420C4690461F4666
:1036EC0038D88A8912F4906F32D025680969013371
:1036FC00A5EB010965694B4405EB450505EBD57553
:10370C006D109D4238BF1D46530531D5294600F03A
:10371C0053FB064650B90C234FF0FF30CAF800306B
:10372C00A38943F04003A381BDE8F0874A46216991
:10373C0000F0CEFAA38923F4906343F08003A381B5
:10374C0026614E4426603E466561A5EB0905A560E1
:10375C00BE4200D93E4632464146206800F0C6FAC9
:10376C00A36822689B1B32440020A3602260DBE725
:10377C002A4600F07BFB06460028E1D15046216921
:10378C0000F0CEFAC7E700002DE9F04F98468B8980
:10379C0007461B060D4614469DB00ED50B6963B942
:1037AC00402100F009FB2860286120B90C233B6004
:1037BC004FF0FF30D1E040236B61002309932023AD
:1037CC008DF8293030234FF00109CDF80C80DFF84B
:1037DC00A4818DF82A3023469A4613F8012B0AB19E
:1037EC00252AF9D1BAEB040B0BD05B4622462946AD
:1037FC003846FFF76DFF013000F0AA80099A5A4451
:10380C0009929AF80030002B00F0A28000234FF0B0
:10381C00FF32CDE905230AF1010A049307938DF8D1
:10382C0053301A935446052214F8011B514800F0EA
:10383C0041FA049AD8B9D00644BF20238DF85330EE
:10384C00110744BF2B238DF853309AF800302A2BE4
:10385C0015D0544600204FF00A0C079A214611F857
:10386C00013B303B092B4ED9B0B1079214E0A0EBD1
:10387C00080309FA03F31343A2460493D2E7039B0C
:10388C00191D1B680391002BBBBF5B4242F0020267
:10389C0007930793B8BF049223782E2B0CD163782F
:1038AC002A2B35D1039B02341A1D1B680392002B63
:1038BC00B8BF4FF0FF330593DFF8C8A00322504682
:1038CC00217800F0F7F940B14023A0EB0A0003FA8D
:1038DC0000F0049B01340343049314F8011B0622EB
:1038EC0025488DF8281000F0E5F9002838D0234B36
:1038FC001BBB039B073323F0070308330393099B7C
:10390C003344099367E70C4601200CFB0232A5E710
:10391C0000234FF00A0C194601340593204610F889
:10392C00012B303A092A03D9002BC5D00591C3E7E6
:10393C00044601230CFB0121F0E703AB00932A465C
:10394C0038460F4B04A9AFF30080421C0646D6D173
:10395C00AB895B063FF52CAF09981DB0BDE8F08F25
:10396C0003AB00932A463846054B04A900F07CF8BB
:10397C00EBE700BF0E4000081840000800000000F4
:10398C00DD360008144000082DE9F047164699462C
:10399C008A680B6907469342B8BF1346336091F8A7
:1039AC0043200C46DDF820800AB1013333602368D4
:1039BC00990642BF336802333360256815F006055B
:1039CC0006D104F1190AE36832689B1AAB4228DC71
:1039DC0094F84320131E226818BF012392062DD49D
:1039EC004946384604F14302C047013020D02368D1
:1039FC00E56803F00603042B18BF002532684FF06E
:103A0C000006A36808BFAD1A226908BF25EAE57550
:103A1C009342C4BF9B1AED181A34B5421AD1002038
:103A2C0008E00123524649463846C047013003D1CD
:103A3C004FF0FF30BDE8F0870135C4E73020E118C6
:103A4C0081F843005A1C94F845102244023382F842
:103A5C004310C5E70123224649463846C04701308A
:103A6C00E6D00136D9E700002DE9FF470C46277E4A
:103A7C009146782F80469A460C9904F1430207D858
:103A8C00622F0AD8002F00F0D980582F00F0A480A4
:103A9C0004F1420684F842703AE0A7F16303152B57
:103AAC00F6D801A050F823F00D3B0008213B00088C
:103ABC009D3A00089D3A00089D3A00089D3A00087E
:103ACC00213B00089D3A00089D3A00089D3A0008E9
:103ADC009D3A00082F3C0008513B0008113C00089F
:103AEC009D3A00089D3A0008513C00089D3A000898
:103AFC00513B00089D3A00089D3A0008193C00080B
:103B0C000B6804F142061A1D1B680A6084F84230E7
:103B1C000123A4E0256808682E0600F104030AD5E9
:103B2C0005680B60002D03DA2D236D4284F84330B9
:103B3C000A235E4819E015F0400F05680B6018BFAA
:103B4C002DB2EFE70B682568181D0860280601D513
:103B5C001D6802E06906FBD51D886F2F0CBF08237A
:103B6C000A235248002184F843106668002EA8BF2F
:103B7C002168A660A4BF21F0040121600DB9002EBC
:103B8C004DD01646B5FBF3F103FB1157C75D06F894
:103B9C00017D2F46BB420D46F4D9082B0BD123686F
:103BAC00DF0708D5236961689942DEBF302306F828
:103BBC00013C06F1FF36921B22614B4621464046E2
:103BCC00CDF800A003AAFFF7DFFE01304CD14FF077
:103BDC00FF3004B0BDE8F087344884F845700E68B7
:103BEC00236856F8045B1F060E6014D5D90744BF32
:103BFC0043F0200323601DB9236823F020032360C6
:103C0C001023AFE7236843F0200323607823284870
:103C1C0084F84530E3E75E0648BFADB2E6E71646EA
:103C2C00BBE70B6826681D1D60690D6035061B68B7
:103C3C0001D5186002E07106FBD5188000231646EA
:103C4C002361BAE70B681A1D0A601E680021304612
:103C5C00626800F02FF808B1801B60606368236114
:103C6C00002384F84330A8E732464946404623698E
:103C7C00D0470130ABD023689B0713D4E068039B7B
:103C8C009842B8BF1846A4E701233246494640463D
:103C9C00D04701309BD00135E36803995B1AAB42E6
:103CAC00F2DCEBE7002504F11906F5E71F400008EC
:103CBC0030400008034610B5C9B20244934218467E
:103CCC0001D1002003E0047801338C42F6D110BD01
:103CDC000A44914200F1FF3300D1704710B511F83E
:103CEC00014B914203F8014FF9D110BD884210B538
:103CFC0001EB020402D98442234607D8431EA14299
:103D0C0008D011F8012B03F8012FF8E70146024403
:103D1C008A4200D110BD13F8014D02F8014DF7E7AE
:103D2C0038B50546002943D051F8043C0C1F002B34
:103D3C00B8BFE41800F0D0F81E4A1368104633B927
:103D4C00636014602846BDE8384000F0CBB8A3424D
:103D5C000AD921686218934201BF1A685B6852182D
:103D6C00226063600460EDE71A465B680BB1A34206
:103D7C00FAD911685018A0420BD120680144501890
:103D8C0083421160DED118685B6801441160536096
:103D9C00D8E702D90C232B60D4E7206821188B427A
:103DAC0001BF19685B680918216063605460C9E73A
:103DBC0038BD00BF44010020F8B5CD1C25F003052B
:103DCC0008350C2D38BF0C25002D064601DBA94209
:103DDC0003D90C2333600020F8BD00F07DF8214995
:103DEC000A6814469CB9204F3B6823B921463046DB
:103DFC0000F062F838602946304600F05DF8431C4C
:103E0C0023D10C233046336000F06CF8E3E72368D1
:103E1C005B1B17D40B2B03D923601C44256004E0D7
:103E2C006368A2420CBF0B605360304600F05AF836
:103E3C0004F10B00231D20F00700C21ACCD01B1A72
:103E4C00A350C9E722466468CCE7C41C24F00304E1
:103E5C00A042E3D0211A304600F02EF80130DDD11B
:103E6C00CFE700BF4401002048010020F8B5074609
:103E7C0014460E4621B91146BDE8F840FFF79CBF29
:103E8C0022B9FFF74DFF25462846F8BD00F030F863
:103E9C00A0420FD221463846FFF78EFF0546002878
:103EAC00F2D031462246FFF713FF31463846FFF772
:103EBC0037FFE9E73546E7E738B50023054D0446FB
:103ECC0008462B60FDF768FB431C02D12B6803B13D
:103EDC00236038BD00020020014800F011B800BF7B
:103EEC0008020020014800F00CB800BF08020020B6
:103EFC0051F8043C181F002BBCBF0B58C01870475E
:103F0C0070477047F8B500BFF8BC08BC9E467047B8
:0C3F1C00F8B500BFF8BC08BC9E4670471A
:103F2800524544313A202020202020202530326478
:103F380000000000475245454E323A2020202020FC
:103F4800253032640000000059454C4C4F57323A36
:103F580020202020253032640000000047524545CB
:103F68004E313A2020202020253032640000000005
:103F7800524544323A202020202020202530326427
:103F88000000000059454C4C4F57313A2020202062
:103F980025303264000000004D4F4445323A20205D
:103FA80020205245440000004455524154494F4E88
:103FB8003A202530326400004D4F4445323A2020E3
:103FC800202059454C4C4F57000000004D4F4445A8
:103FD800323A20202020475245454E00000000007C
:103FE80000000000010203040607080900000000A1
:103FF8000102030402030405060708090A0B0C0D55
:104008000E0F10100102232D302B2000686C4C007D
:1040180065666745464700303132333435363738C0
:10402800394142434445460030313233343536371E
:0C403800383961626364656600000000B6
:04404400310100083E
:044048000D0100085E
:10404C000100000001000000010000000100000060
:10405C000100000001000000010000000100000050
:10406C000100000001000000010000000100000040
:10407C00D0070000D0070000D007000000127A0023
:10408C0010000000010000004C00002000000000A7
:10409C000000000000000000000000000000000014
:1040AC000000000000000000000000000000000004
:1040BC0000000000000000000000000000000000F4
:1040CC0000000000000000000000000000000000E4
:1040DC0000000000000000000000000000000000D4
:0C40EC00000000000000000000000000C8
:040000050800161DBC
:00000001FF
